{"abi":[{"type":"constructor","inputs":[],"stateMutability":"nonpayable"},{"type":"function","name":"colour","inputs":[],"outputs":[{"name":"","type":"bytes3","internalType":"bytes3"}],"stateMutability":"view"},{"type":"function","name":"doors","inputs":[],"outputs":[{"name":"","type":"uint8","internalType":"uint8"}],"stateMutability":"view"},{"type":"function","name":"owner","inputs":[],"outputs":[{"name":"","type":"address","internalType":"address"}],"stateMutability":"view"},{"type":"function","name":"status","inputs":[],"outputs":[{"name":"","type":"uint8","internalType":"enum Cars.CarStatus"}],"stateMutability":"view"}],"bytecode":{"object":"0x608060405234801561001057600080fd5b506102d7806100206000396000f3fe608060405234801561001057600080fd5b506004361061004c5760003560e01c8063200d2ed214610051578063359919111461006f5780633dbc06101461008d5780638da5cb5b146100ab575b600080fd5b6100596100c9565b604051610066919061019d565b60405180910390f35b6100776100dc565b60405161008491906101d4565b60405180910390f35b6100956100ef565b6040516100a2919061022a565b60405180910390f35b6100b3610100565b6040516100c09190610286565b60405180910390f35b600060049054906101000a900460ff1681565b600060039054906101000a900460ff1681565b60008054906101000a900460e81b81565b600060059054906101000a900473ffffffffffffffffffffffffffffffffffffffff1681565b7f4e487b7100000000000000000000000000000000000000000000000000000000600052602160045260246000fd5b6002811061016657610165610126565b5b50565b600081905061017782610155565b919050565b600061018782610169565b9050919050565b6101978161017c565b82525050565b60006020820190506101b2600083018461018e565b92915050565b600060ff82169050919050565b6101ce816101b8565b82525050565b60006020820190506101e960008301846101c5565b92915050565b60007fffffff000000000000000000000000000000000000000000000000000000000082169050919050565b610224816101ef565b82525050565b600060208201905061023f600083018461021b565b92915050565b600073ffffffffffffffffffffffffffffffffffffffff82169050919050565b600061027082610245565b9050919050565b61028081610265565b82525050565b600060208201905061029b6000830184610277565b9291505056fea2646970667358221220ae5f60dddfa5e5ec662467a2a799f5aec7a9c9e77bb469aec8d17c8fe21e17dc64736f6c63430008130033","linkReferences":{}},"methodIdentifiers":{"colour()":"3dbc0610","doors()":"35991911","owner()":"8da5cb5b","status()":"200d2ed2"},"id":0}