{"abi":[{"type":"constructor","inputs":[{"name":"superHonkAddress","type":"address","internalType":"address"}],"stateMutability":"nonpayable"},{"type":"function","name":"addCar","inputs":[{"name":"colour","type":"bytes3","internalType":"bytes3"},{"name":"doors","type":"uint8","internalType":"uint8"}],"outputs":[{"name":"carId","type":"uint256","internalType":"uint256"}],"stateMutability":"payable"},{"type":"function","name":"cars","inputs":[{"name":"","type":"uint256","internalType":"uint256"}],"outputs":[{"name":"colour","type":"bytes3","internalType":"bytes3"},{"name":"doors","type":"uint8","internalType":"uint8"},{"name":"status","type":"uint8","internalType":"enum Cars.CarStatus"},{"name":"owner","type":"address","internalType":"address"}],"stateMutability":"view"},{"type":"function","name":"honk","inputs":[{"name":"carId","type":"uint256","internalType":"uint256"},{"name":"isLoud","type":"bool","internalType":"bool"}],"outputs":[],"stateMutability":"nonpayable"},{"type":"function","name":"numCars","inputs":[],"outputs":[{"name":"","type":"uint256","internalType":"uint256"}],"stateMutability":"view"},{"type":"function","name":"statusChange","inputs":[{"name":"carId","type":"uint256","internalType":"uint256"},{"name":"newStatus","type":"uint8","internalType":"enum Cars.CarStatus"}],"outputs":[],"stateMutability":"nonpayable"},{"type":"event","name":"CarHonk","inputs":[{"name":"carId","type":"uint256","indexed":true,"internalType":"uint256"}],"anonymous":false}],"bytecode":{"object":"0x6080604052600060015534801561001557600080fd5b50604051610cad380380610cad833981810160405281019061003791906100e0565b806000806101000a81548173ffffffffffffffffffffffffffffffffffffffff021916908373ffffffffffffffffffffffffffffffffffffffff1602179055505061010d565b600080fd5b600073ffffffffffffffffffffffffffffffffffffffff82169050919050565b60006100ad82610082565b9050919050565b6100bd816100a2565b81146100c857600080fd5b50565b6000815190506100da816100b4565b92915050565b6000602082840312156100f6576100f561007d565b5b6000610104848285016100cb565b91505092915050565b610b918061011c6000396000f3fe60806040526004361061004a5760003560e01c806317f1c6e31461004f5780632419e9c8146100785780638b6fd1fa146100a3578063dc6b1c9d146100cc578063f7746e36146100fc575b600080fd5b34801561005b57600080fd5b5061007660048036038101906100719190610694565b61013c565b005b34801561008457600080fd5b5061008d6102ad565b60405161009a91906106e3565b60405180910390f35b3480156100af57600080fd5b506100ca60048036038101906100c59190610736565b6102b3565b005b6100e660048036038101906100e19190610807565b610411565b6040516100f391906106e3565b60405180910390f35b34801561010857600080fd5b50610123600480360381019061011e9190610847565b6105bd565b604051610133949392919061094a565b60405180910390f35b813373ffffffffffffffffffffffffffffffffffffffff166002600083815260200190815260200160002060000160059054906101000a900473ffffffffffffffffffffffffffffffffffffffff1673ffffffffffffffffffffffffffffffffffffffff16146101e1576040517f08c379a00000000000000000000000000000000000000000000000000000000081526004016101d8906109ec565b60405180910390fd5b8160018111156101f4576101f3610892565b5b6002600085815260200190815260200160002060000160049054906101000a900460ff16600181111561022a57610229610892565b5b0361026a576040517f08c379a000000000000000000000000000000000000000000000000000000000815260040161026190610a58565b60405180910390fd5b816002600085815260200190815260200160002060000160046101000a81548160ff021916908360018111156102a3576102a2610892565b5b0217905550505050565b60015481565b813373ffffffffffffffffffffffffffffffffffffffff166002600083815260200190815260200160002060000160059054906101000a900473ffffffffffffffffffffffffffffffffffffffff1673ffffffffffffffffffffffffffffffffffffffff1614610358576040517f08c379a000000000000000000000000000000000000000000000000000000000815260040161034f906109ec565b60405180910390fd5b827f76b42385eaa2e7c91181807a1e593a451d802196775addd304d81168bd84fff860405160405180910390a2811561040c5760008054906101000a900473ffffffffffffffffffffffffffffffffffffffff1673ffffffffffffffffffffffffffffffffffffffff166314274baa6040518163ffffffff1660e01b8152600401600060405180830381600087803b1580156103f357600080fd5b505af1158015610407573d6000803e3d6000fd5b505050505b505050565b600067016345785d8a0000341161045d576040517f08c379a000000000000000000000000000000000000000000000000000000000815260040161045490610ac4565b60405180910390fd5b60016000815461046c90610b13565b919050819055905060006040518060800160405280857cffffffffffffffffffffffffffffffffffffffffffffffffffffffffff191681526020018460ff1681526020016001808111156104c3576104c2610892565b5b81526020013373ffffffffffffffffffffffffffffffffffffffff168152509050806002600084815260200190815260200160002060008201518160000160006101000a81548162ffffff021916908360e81c021790555060208201518160000160036101000a81548160ff021916908360ff16021790555060408201518160000160046101000a81548160ff0219169083600181111561056757610566610892565b5b021790555060608201518160000160056101000a81548173ffffffffffffffffffffffffffffffffffffffff021916908373ffffffffffffffffffffffffffffffffffffffff1602179055509050505092915050565b60026020528060005260406000206000915090508060000160009054906101000a900460e81b908060000160039054906101000a900460ff16908060000160049054906101000a900460ff16908060000160059054906101000a900473ffffffffffffffffffffffffffffffffffffffff16905084565b600080fd5b6000819050919050565b61064c81610639565b811461065757600080fd5b50565b60008135905061066981610643565b92915050565b6002811061067c57600080fd5b50565b60008135905061068e8161066f565b92915050565b600080604083850312156106ab576106aa610634565b5b60006106b98582860161065a565b92505060206106ca8582860161067f565b9150509250929050565b6106dd81610639565b82525050565b60006020820190506106f860008301846106d4565b92915050565b60008115159050919050565b610713816106fe565b811461071e57600080fd5b50565b6000813590506107308161070a565b92915050565b6000806040838503121561074d5761074c610634565b5b600061075b8582860161065a565b925050602061076c85828601610721565b9150509250929050565b60007fffffff000000000000000000000000000000000000000000000000000000000082169050919050565b6107ab81610776565b81146107b657600080fd5b50565b6000813590506107c8816107a2565b92915050565b600060ff82169050919050565b6107e4816107ce565b81146107ef57600080fd5b50565b600081359050610801816107db565b92915050565b6000806040838503121561081e5761081d610634565b5b600061082c858286016107b9565b925050602061083d858286016107f2565b9150509250929050565b60006020828403121561085d5761085c610634565b5b600061086b8482850161065a565b91505092915050565b61087d81610776565b82525050565b61088c816107ce565b82525050565b7f4e487b7100000000000000000000000000000000000000000000000000000000600052602160045260246000fd5b600281106108d2576108d1610892565b5b50565b60008190506108e3826108c1565b919050565b60006108f3826108d5565b9050919050565b610903816108e8565b82525050565b600073ffffffffffffffffffffffffffffffffffffffff82169050919050565b600061093482610909565b9050919050565b61094481610929565b82525050565b600060808201905061095f6000830187610874565b61096c6020830186610883565b61097960408301856108fa565b610986606083018461093b565b95945050505050565b600082825260208201905092915050565b7f6f6e6c79206f776e657200000000000000000000000000000000000000000000600082015250565b60006109d6600a8361098f565b91506109e1826109a0565b602082019050919050565b60006020820190508181036000830152610a05816109c9565b9050919050565b7f6e6f206368616e67650000000000000000000000000000000000000000000000600082015250565b6000610a4260098361098f565b9150610a4d82610a0c565b602082019050919050565b60006020820190508181036000830152610a7181610a35565b9050919050565b7f7265717569726573207061796d656e7400000000000000000000000000000000600082015250565b6000610aae60108361098f565b9150610ab982610a78565b602082019050919050565b60006020820190508181036000830152610add81610aa1565b9050919050565b7f4e487b7100000000000000000000000000000000000000000000000000000000600052601160045260246000fd5b6000610b1e82610639565b91507fffffffffffffffffffffffffffffffffffffffffffffffffffffffffffffffff8203610b5057610b4f610ae4565b5b60018201905091905056fea264697066735822122059ac8015d649802cab2a901c7edb1c1941cf0b3252d25ea03e816f03e712191564736f6c63430008130033","linkReferences":{}},"methodIdentifiers":{"addCar(bytes3,uint8)":"dc6b1c9d","cars(uint256)":"f7746e36","honk(uint256,bool)":"8b6fd1fa","numCars()":"2419e9c8","statusChange(uint256,uint8)":"17f1c6e3"},"id":0}