{"abi":[{"type":"constructor","inputs":[],"stateMutability":"nonpayable"},{"type":"function","name":"addCar","inputs":[{"name":"colour","type":"bytes3","internalType":"bytes3"},{"name":"doors","type":"uint8","internalType":"uint8"}],"outputs":[{"name":"carId","type":"uint256","internalType":"uint256"}],"stateMutability":"payable"},{"type":"function","name":"cars","inputs":[{"name":"","type":"uint256","internalType":"uint256"}],"outputs":[{"name":"colour","type":"bytes3","internalType":"bytes3"},{"name":"doors","type":"uint8","internalType":"uint8"},{"name":"status","type":"uint8","internalType":"enum Cars.CarStatus"},{"name":"owner","type":"address","internalType":"address"}],"stateMutability":"view"},{"type":"function","name":"honk","inputs":[{"name":"carId","type":"uint256","internalType":"uint256"}],"outputs":[],"stateMutability":"nonpayable"},{"type":"function","name":"numCars","inputs":[],"outputs":[{"name":"","type":"uint256","internalType":"uint256"}],"stateMutability":"view"},{"type":"function","name":"statusChange","inputs":[{"name":"carId","type":"uint256","internalType":"uint256"},{"name":"newStatus","type":"uint8","internalType":"enum Cars.CarStatus"}],"outputs":[],"stateMutability":"nonpayable"},{"type":"event","name":"CarHonk","inputs":[{"name":"carId","type":"uint256","indexed":true,"internalType":"uint256"}],"anonymous":false}],"bytecode":{"object":"0x60806040526000805534801561001457600080fd5b50610a90806100246000396000f3fe60806040526004361061004a5760003560e01c806317f1c6e31461004f5780632419e9c814610078578063aa4cbaa7146100a3578063dc6b1c9d146100cc578063f7746e36146100fc575b600080fd5b34801561005b57600080fd5b506100766004803603810190610071919061060b565b61013c565b005b34801561008457600080fd5b5061008d6102ad565b60405161009a919061065a565b60405180910390f35b3480156100af57600080fd5b506100ca60048036038101906100c59190610675565b6102b3565b005b6100e660048036038101906100e19190610733565b610389565b6040516100f3919061065a565b60405180910390f35b34801561010857600080fd5b50610123600480360381019061011e9190610675565b610534565b6040516101339493929190610849565b60405180910390f35b813373ffffffffffffffffffffffffffffffffffffffff166001600083815260200190815260200160002060000160059054906101000a900473ffffffffffffffffffffffffffffffffffffffff1673ffffffffffffffffffffffffffffffffffffffff16146101e1576040517f08c379a00000000000000000000000000000000000000000000000000000000081526004016101d8906108eb565b60405180910390fd5b8160018111156101f4576101f3610791565b5b6001600085815260200190815260200160002060000160049054906101000a900460ff16600181111561022a57610229610791565b5b0361026a576040517f08c379a000000000000000000000000000000000000000000000000000000000815260040161026190610957565b60405180910390fd5b816001600085815260200190815260200160002060000160046101000a81548160ff021916908360018111156102a3576102a2610791565b5b0217905550505050565b60005481565b803373ffffffffffffffffffffffffffffffffffffffff166001600083815260200190815260200160002060000160059054906101000a900473ffffffffffffffffffffffffffffffffffffffff1673ffffffffffffffffffffffffffffffffffffffff1614610358576040517f08c379a000000000000000000000000000000000000000000000000000000000815260040161034f906108eb565b60405180910390fd5b817f76b42385eaa2e7c91181807a1e593a451d802196775addd304d81168bd84fff860405160405180910390a25050565b600067016345785d8a000034116103d5576040517f08c379a00000000000000000000000000000000000000000000000000000000081526004016103cc906109c3565b60405180910390fd5b60008081546103e390610a12565b919050819055905060006040518060800160405280857cffffffffffffffffffffffffffffffffffffffffffffffffffffffffff191681526020018460ff16815260200160018081111561043a57610439610791565b5b81526020013373ffffffffffffffffffffffffffffffffffffffff168152509050806001600084815260200190815260200160002060008201518160000160006101000a81548162ffffff021916908360e81c021790555060208201518160000160036101000a81548160ff021916908360ff16021790555060408201518160000160046101000a81548160ff021916908360018111156104de576104dd610791565b5b021790555060608201518160000160056101000a81548173ffffffffffffffffffffffffffffffffffffffff021916908373ffffffffffffffffffffffffffffffffffffffff1602179055509050505092915050565b60016020528060005260406000206000915090508060000160009054906101000a900460e81b908060000160039054906101000a900460ff16908060000160049054906101000a900460ff16908060000160059054906101000a900473ffffffffffffffffffffffffffffffffffffffff16905084565b600080fd5b6000819050919050565b6105c3816105b0565b81146105ce57600080fd5b50565b6000813590506105e0816105ba565b92915050565b600281106105f357600080fd5b50565b600081359050610605816105e6565b92915050565b60008060408385031215610622576106216105ab565b5b6000610630858286016105d1565b9250506020610641858286016105f6565b9150509250929050565b610654816105b0565b82525050565b600060208201905061066f600083018461064b565b92915050565b60006020828403121561068b5761068a6105ab565b5b6000610699848285016105d1565b91505092915050565b60007fffffff000000000000000000000000000000000000000000000000000000000082169050919050565b6106d7816106a2565b81146106e257600080fd5b50565b6000813590506106f4816106ce565b92915050565b600060ff82169050919050565b610710816106fa565b811461071b57600080fd5b50565b60008135905061072d81610707565b92915050565b6000806040838503121561074a576107496105ab565b5b6000610758858286016106e5565b92505060206107698582860161071e565b9150509250929050565b61077c816106a2565b82525050565b61078b816106fa565b82525050565b7f4e487b7100000000000000000000000000000000000000000000000000000000600052602160045260246000fd5b600281106107d1576107d0610791565b5b50565b60008190506107e2826107c0565b919050565b60006107f2826107d4565b9050919050565b610802816107e7565b82525050565b600073ffffffffffffffffffffffffffffffffffffffff82169050919050565b600061083382610808565b9050919050565b61084381610828565b82525050565b600060808201905061085e6000830187610773565b61086b6020830186610782565b61087860408301856107f9565b610885606083018461083a565b95945050505050565b600082825260208201905092915050565b7f6f6e6c79206f776e657200000000000000000000000000000000000000000000600082015250565b60006108d5600a8361088e565b91506108e08261089f565b602082019050919050565b60006020820190508181036000830152610904816108c8565b9050919050565b7f6e6f206368616e67650000000000000000000000000000000000000000000000600082015250565b600061094160098361088e565b915061094c8261090b565b602082019050919050565b6000602082019050818103600083015261097081610934565b9050919050565b7f7265717569726573207061796d656e7400000000000000000000000000000000600082015250565b60006109ad60108361088e565b91506109b882610977565b602082019050919050565b600060208201905081810360008301526109dc816109a0565b9050919050565b7f4e487b7100000000000000000000000000000000000000000000000000000000600052601160045260246000fd5b6000610a1d826105b0565b91507fffffffffffffffffffffffffffffffffffffffffffffffffffffffffffffffff8203610a4f57610a4e6109e3565b5b60018201905091905056fea26469706673582212203c8927efb4f90d598453c70854196ddd2e2a47addea41d92a53049338cfcc02b64736f6c63430008130033","linkReferences":{}},"methodIdentifiers":{"addCar(bytes3,uint8)":"dc6b1c9d","cars(uint256)":"f7746e36","honk(uint256)":"aa4cbaa7","numCars()":"2419e9c8","statusChange(uint256,uint8)":"17f1c6e3"},"id":0}