{"abi":[{"type":"function","name":"count","inputs":[],"outputs":[{"name":"","type":"uint256","internalType":"uint256"}],"stateMutability":"view"},{"type":"function","name":"honk","inputs":[],"outputs":[],"stateMutability":"nonpayable"},{"type":"event","name":"LoudSound","inputs":[{"name":"source","type":"address","indexed":true,"internalType":"address"}],"anonymous":false}],"bytecode":{"object":"0x608060405234801561001057600080fd5b50610194806100206000396000f3fe608060405234801561001057600080fd5b50600436106100365760003560e01c806306661abd1461003b57806314274baa14610059575b600080fd5b610043610063565b60405161005091906100e0565b60405180910390f35b610061610069565b005b60005481565b600160008082825461007b919061012a565b925050819055503373ffffffffffffffffffffffffffffffffffffffff167f99853bc2ae2eab6cfcf41e8d26548f62ad0f8dfb11c576c861f85796efea5a8a60405160405180910390a2565b6000819050919050565b6100da816100c7565b82525050565b60006020820190506100f560008301846100d1565b92915050565b7f4e487b7100000000000000000000000000000000000000000000000000000000600052601160045260246000fd5b6000610135826100c7565b9150610140836100c7565b9250828201905080821115610158576101576100fb565b5b9291505056fea2646970667358221220727e1b8a27a50ba3d6886d3a7fe740ac8578697550d66caf2dda175ab14db47764736f6c63430008130033","linkReferences":{}},"methodIdentifiers":{"count()":"06661abd","honk()":"14274baa"},"id":0}