{"abi":[{"type":"constructor","inputs":[],"stateMutability":"nonpayable"},{"type":"function","name":"addCar","inputs":[{"name":"_colour","type":"bytes3","internalType":"bytes3"},{"name":"_doors","type":"uint8","internalType":"uint8"}],"outputs":[{"name":"carid","type":"uint256","internalType":"uint256"}],"stateMutability":"nonpayable"},{"type":"function","name":"cars","inputs":[{"name":"","type":"uint256","internalType":"uint256"}],"outputs":[{"name":"colour","type":"bytes3","internalType":"bytes3"},{"name":"doors","type":"uint8","internalType":"uint8"},{"name":"status","type":"uint8","internalType":"enum Cars.CarStatus"},{"name":"owner","type":"address","internalType":"address"}],"stateMutability":"view"},{"type":"function","name":"numCars","inputs":[],"outputs":[{"name":"","type":"uint256","internalType":"uint256"}],"stateMutability":"view"}],"bytecode":{"object":"0x60806040526000805534801561001457600080fd5b50610400806100246000396000f3fe608060405234801561001057600080fd5b50600436106100415760003560e01c80632419e9c814610046578063dc6b1c9d14610064578063f7746e3614610094575b600080fd5b61004e6100c7565b60405161005b9190610165565b60405180910390f35b61007e60048036038101906100799190610216565b6100cd565b60405161008b9190610165565b60405180910390f35b6100ae60048036038101906100a99190610282565b6100d5565b6040516100be9493929190610385565b60405180910390f35b60005481565b600092915050565b60016020528060005260406000206000915090508060000160009054906101000a900460e81b908060000160039054906101000a900460ff16908060000160049054906101000a900460ff16908060000160059054906101000a900473ffffffffffffffffffffffffffffffffffffffff16905084565b6000819050919050565b61015f8161014c565b82525050565b600060208201905061017a6000830184610156565b92915050565b600080fd5b60007fffffff000000000000000000000000000000000000000000000000000000000082169050919050565b6101ba81610185565b81146101c557600080fd5b50565b6000813590506101d7816101b1565b92915050565b600060ff82169050919050565b6101f3816101dd565b81146101fe57600080fd5b50565b600081359050610210816101ea565b92915050565b6000806040838503121561022d5761022c610180565b5b600061023b858286016101c8565b925050602061024c85828601610201565b9150509250929050565b61025f8161014c565b811461026a57600080fd5b50565b60008135905061027c81610256565b92915050565b60006020828403121561029857610297610180565b5b60006102a68482850161026d565b91505092915050565b6102b881610185565b82525050565b6102c7816101dd565b82525050565b7f4e487b7100000000000000000000000000000000000000000000000000000000600052602160045260246000fd5b6002811061030d5761030c6102cd565b5b50565b600081905061031e826102fc565b919050565b600061032e82610310565b9050919050565b61033e81610323565b82525050565b600073ffffffffffffffffffffffffffffffffffffffff82169050919050565b600061036f82610344565b9050919050565b61037f81610364565b82525050565b600060808201905061039a60008301876102af565b6103a760208301866102be565b6103b46040830185610335565b6103c16060830184610376565b9594505050505056fea26469706673582212208f87a4825840f09ef324504c31cae2519bd1b764b371cca272fb051b7c176ba564736f6c63430008130033","linkReferences":{}},"methodIdentifiers":{"addCar(bytes3,uint8)":"dc6b1c9d","cars(uint256)":"f7746e36","numCars()":"2419e9c8"},"id":0}