{"abi":[{"type":"constructor","inputs":[],"stateMutability":"nonpayable"},{"type":"function","name":"doors","inputs":[],"outputs":[{"name":"","type":"uint256","internalType":"uint256"}],"stateMutability":"view"},{"type":"function","name":"isBlack","inputs":[],"outputs":[{"name":"","type":"bool","internalType":"bool"}],"stateMutability":"view"},{"type":"function","name":"owner","inputs":[],"outputs":[{"name":"","type":"address","internalType":"address"}],"stateMutability":"view"}],"bytecode":{"object":"0x608060405234801561001057600080fd5b506101d9806100206000396000f3fe608060405234801561001057600080fd5b50600436106100415760003560e01c806335991911146100465780638da5cb5b14610064578063d79c955d14610082575b600080fd5b61004e6100a0565b60405161005b91906100f6565b60405180910390f35b61006c6100a6565b6040516100799190610152565b60405180910390f35b61008a6100cc565b6040516100979190610188565b60405180910390f35b60015481565b600260009054906101000a900473ffffffffffffffffffffffffffffffffffffffff1681565b60008054906101000a900460ff1681565b6000819050919050565b6100f0816100dd565b82525050565b600060208201905061010b60008301846100e7565b92915050565b600073ffffffffffffffffffffffffffffffffffffffff82169050919050565b600061013c82610111565b9050919050565b61014c81610131565b82525050565b60006020820190506101676000830184610143565b92915050565b60008115159050919050565b6101828161016d565b82525050565b600060208201905061019d6000830184610179565b9291505056fea26469706673582212200a7f3bd580d3213b0f7286c58ca77e6baa2629daf1fc60bc3239f0c8a5e2788964736f6c63430008130033","linkReferences":{}},"methodIdentifiers":{"doors()":"35991911","isBlack()":"d79c955d","owner()":"8da5cb5b"},"id":0}